:1000000033C000004DC000004AC0000048C00000DE
:1000100046C0000044C0000042C0000040C00000D4
:100020003EC000003CC000003AC0000038C00000E4
:1000300036C0000034C0000056C0000030C00000D0
:100040002EC000002CC000002AC0000028C0000004
:1000500026C0000024C0000022C0000020C0000014
:100060001EC000001CC0000011241FBECFEFD8E04E
:10007000DEBFCDBF11E0A0E0B1E0E8E2F2E002C0F7
:1000800005900D92A230B107D9F721E0A2E0B1E0CE
:1000900001C01D92AF30B207E1F74AD0C3C0B0CF64
:1000A0001F920F920FB60F9211248F93809100012F
:1000B000882339F081E080930A011092000183E5E2
:1000C0000AC080910A01882341F081E080930001F9
:1000D00010920A0188EE809301018F910F900FBE5C
:1000E0000F901F9018951F920F920FB60F92112428
:1000F0008F939F93AF93BF9380910B0190910C01CD
:10010000A0910D01B0910E010196A11DB11D80932A
:100110000B0190930C01A0930D01B0930E01BF91C0
:10012000AF919F918F910F900FBE0F901F901895D8
:100130008EE084B984E087B95A9A85B5836085BD1D
:1001400089EF87BD84B5826084BD80916E00826036
:1001500080936E0080916900846080936900E89AC2
:1001600080916800816080936800789432E024E098
:1001700040910B0150910C0160910D0170910E01A5
:100180008091060190910701A0910801B0910901A9
:10019000481759076A077B07B8F085B1832785B9E7
:1001A0008091060190910701A0910801B091090189
:1001B0008C599F4FAF4FBF4F80930601909307011B
:1001C000A0930801B093090140910B0150910C01DB
:1001D00060910D0170910E018091020190910301D7
:1001E000A0910401B0910501481759076A077B07E0
:1001F00008F4BECF85B1822785B980910201909124
:100200000301A0910401B09105018C599F4FAF4F9C
:10021000BF4F8093020190930301A0930401B09318
:080220000501A6CFF894FFCF01
:0202280001C80B
:00000001FF
